{
  "_format": "hh-sol-artifact-1",
  "contractName": "Exchange",
  "sourceName": "contracts/Exchange.sol",
  "abi": [
    {
      "inputs": [
        {
          "internalType": "address",
          "name": "token",
          "type": "address"
        }
      ],
      "stateMutability": "nonpayable",
      "type": "constructor"
    },
    {
      "inputs": [
        {
          "internalType": "address",
          "name": "spender",
          "type": "address"
        },
        {
          "internalType": "uint256",
          "name": "allowance",
          "type": "uint256"
        },
        {
          "internalType": "uint256",
          "name": "needed",
          "type": "uint256"
        }
      ],
      "name": "ERC20InsufficientAllowance",
      "type": "error"
    },
    {
      "inputs": [
        {
          "internalType": "address",
          "name": "sender",
          "type": "address"
        },
        {
          "internalType": "uint256",
          "name": "balance",
          "type": "uint256"
        },
        {
          "internalType": "uint256",
          "name": "needed",
          "type": "uint256"
        }
      ],
      "name": "ERC20InsufficientBalance",
      "type": "error"
    },
    {
      "inputs": [
        {
          "internalType": "address",
          "name": "approver",
          "type": "address"
        }
      ],
      "name": "ERC20InvalidApprover",
      "type": "error"
    },
    {
      "inputs": [
        {
          "internalType": "address",
          "name": "receiver",
          "type": "address"
        }
      ],
      "name": "ERC20InvalidReceiver",
      "type": "error"
    },
    {
      "inputs": [
        {
          "internalType": "address",
          "name": "sender",
          "type": "address"
        }
      ],
      "name": "ERC20InvalidSender",
      "type": "error"
    },
    {
      "inputs": [
        {
          "internalType": "address",
          "name": "spender",
          "type": "address"
        }
      ],
      "name": "ERC20InvalidSpender",
      "type": "error"
    },
    {
      "anonymous": false,
      "inputs": [
        {
          "indexed": true,
          "internalType": "address",
          "name": "owner",
          "type": "address"
        },
        {
          "indexed": true,
          "internalType": "address",
          "name": "spender",
          "type": "address"
        },
        {
          "indexed": false,
          "internalType": "uint256",
          "name": "value",
          "type": "uint256"
        }
      ],
      "name": "Approval",
      "type": "event"
    },
    {
      "anonymous": false,
      "inputs": [
        {
          "indexed": true,
          "internalType": "address",
          "name": "from",
          "type": "address"
        },
        {
          "indexed": true,
          "internalType": "address",
          "name": "to",
          "type": "address"
        },
        {
          "indexed": false,
          "internalType": "uint256",
          "name": "value",
          "type": "uint256"
        }
      ],
      "name": "Transfer",
      "type": "event"
    },
    {
      "inputs": [
        {
          "internalType": "uint256",
          "name": "amountOfToken",
          "type": "uint256"
        }
      ],
      "name": "addLiquidity",
      "outputs": [
        {
          "internalType": "uint256",
          "name": "",
          "type": "uint256"
        }
      ],
      "stateMutability": "payable",
      "type": "function"
    },
    {
      "inputs": [
        {
          "internalType": "address",
          "name": "owner",
          "type": "address"
        },
        {
          "internalType": "address",
          "name": "spender",
          "type": "address"
        }
      ],
      "name": "allowance",
      "outputs": [
        {
          "internalType": "uint256",
          "name": "",
          "type": "uint256"
        }
      ],
      "stateMutability": "view",
      "type": "function"
    },
    {
      "inputs": [
        {
          "internalType": "address",
          "name": "spender",
          "type": "address"
        },
        {
          "internalType": "uint256",
          "name": "value",
          "type": "uint256"
        }
      ],
      "name": "approve",
      "outputs": [
        {
          "internalType": "bool",
          "name": "",
          "type": "bool"
        }
      ],
      "stateMutability": "nonpayable",
      "type": "function"
    },
    {
      "inputs": [
        {
          "internalType": "address",
          "name": "account",
          "type": "address"
        }
      ],
      "name": "balanceOf",
      "outputs": [
        {
          "internalType": "uint256",
          "name": "",
          "type": "uint256"
        }
      ],
      "stateMutability": "view",
      "type": "function"
    },
    {
      "inputs": [],
      "name": "decimals",
      "outputs": [
        {
          "internalType": "uint8",
          "name": "",
          "type": "uint8"
        }
      ],
      "stateMutability": "view",
      "type": "function"
    },
    {
      "inputs": [
        {
          "internalType": "uint256",
          "name": "minTokensToReceive",
          "type": "uint256"
        }
      ],
      "name": "ethToTokenSwap",
      "outputs": [],
      "stateMutability": "payable",
      "type": "function"
    },
    {
      "inputs": [
        {
          "internalType": "uint256",
          "name": "inputAmount",
          "type": "uint256"
        },
        {
          "internalType": "uint256",
          "name": "inputReserve",
          "type": "uint256"
        },
        {
          "internalType": "uint256",
          "name": "outputReserve",
          "type": "uint256"
        }
      ],
      "name": "getOutputAmountFromSwap",
      "outputs": [
        {
          "internalType": "uint256",
          "name": "",
          "type": "uint256"
        }
      ],
      "stateMutability": "pure",
      "type": "function"
    },
    {
      "inputs": [],
      "name": "getReserve",
      "outputs": [
        {
          "internalType": "uint256",
          "name": "",
          "type": "uint256"
        }
      ],
      "stateMutability": "view",
      "type": "function"
    },
    {
      "inputs": [],
      "name": "name",
      "outputs": [
        {
          "internalType": "string",
          "name": "",
          "type": "string"
        }
      ],
      "stateMutability": "view",
      "type": "function"
    },
    {
      "inputs": [
        {
          "internalType": "uint256",
          "name": "amountOfLPTokens",
          "type": "uint256"
        }
      ],
      "name": "removeLiquidity",
      "outputs": [
        {
          "internalType": "uint256",
          "name": "",
          "type": "uint256"
        },
        {
          "internalType": "uint256",
          "name": "",
          "type": "uint256"
        }
      ],
      "stateMutability": "nonpayable",
      "type": "function"
    },
    {
      "inputs": [],
      "name": "symbol",
      "outputs": [
        {
          "internalType": "string",
          "name": "",
          "type": "string"
        }
      ],
      "stateMutability": "view",
      "type": "function"
    },
    {
      "inputs": [],
      "name": "tokenAddress",
      "outputs": [
        {
          "internalType": "address",
          "name": "",
          "type": "address"
        }
      ],
      "stateMutability": "view",
      "type": "function"
    },
    {
      "inputs": [
        {
          "internalType": "uint256",
          "name": "tokensToSwap",
          "type": "uint256"
        },
        {
          "internalType": "uint256",
          "name": "minEthToReceive",
          "type": "uint256"
        }
      ],
      "name": "tokenToEthSwap",
      "outputs": [],
      "stateMutability": "nonpayable",
      "type": "function"
    },
    {
      "inputs": [],
      "name": "totalSupply",
      "outputs": [
        {
          "internalType": "uint256",
          "name": "",
          "type": "uint256"
        }
      ],
      "stateMutability": "view",
      "type": "function"
    },
    {
      "inputs": [
        {
          "internalType": "address",
          "name": "to",
          "type": "address"
        },
        {
          "internalType": "uint256",
          "name": "value",
          "type": "uint256"
        }
      ],
      "name": "transfer",
      "outputs": [
        {
          "internalType": "bool",
          "name": "",
          "type": "bool"
        }
      ],
      "stateMutability": "nonpayable",
      "type": "function"
    },
    {
      "inputs": [
        {
          "internalType": "address",
          "name": "from",
          "type": "address"
        },
        {
          "internalType": "address",
          "name": "to",
          "type": "address"
        },
        {
          "internalType": "uint256",
          "name": "value",
          "type": "uint256"
        }
      ],
      "name": "transferFrom",
      "outputs": [
        {
          "internalType": "bool",
          "name": "",
          "type": "bool"
        }
      ],
      "stateMutability": "nonpayable",
      "type": "function"
    }
  ],
  "bytecode": "0x60806040523480156200001157600080fd5b5060405162002480380380620024808339818101604052810190620000379190620001ed565b6040518060400160405280601281526020017f45544820544f4b454e204c5020546f6b656e00000000000000000000000000008152506040518060400160405280600a81526020017f6c70455448544f4b454e000000000000000000000000000000000000000000008152508160039081620000b4919062000499565b508060049081620000c6919062000499565b505050600073ffffffffffffffffffffffffffffffffffffffff168173ffffffffffffffffffffffffffffffffffffffff16036200013b576040517f08c379a0000000000000000000000000000000000000000000000000000000008152600401620001329062000607565b60405180910390fd5b80600560006101000a81548173ffffffffffffffffffffffffffffffffffffffff021916908373ffffffffffffffffffffffffffffffffffffffff1602179055505062000629565b600080fd5b600073ffffffffffffffffffffffffffffffffffffffff82169050919050565b6000620001b58262000188565b9050919050565b620001c781620001a8565b8114620001d357600080fd5b50565b600081519050620001e781620001bc565b92915050565b60006020828403121562000206576200020562000183565b5b60006200021684828501620001d6565b91505092915050565b600081519050919050565b7f4e487b7100000000000000000000000000000000000000000000000000000000600052604160045260246000fd5b7f4e487b7100000000000000000000000000000000000000000000000000000000600052602260045260246000fd5b60006002820490506001821680620002a157607f821691505b602082108103620002b757620002b662000259565b5b50919050565b60008190508160005260206000209050919050565b60006020601f8301049050919050565b600082821b905092915050565b600060088302620003217fffffffffffffffffffffffffffffffffffffffffffffffffffffffffffffffff82620002e2565b6200032d8683620002e2565b95508019841693508086168417925050509392505050565b6000819050919050565b6000819050919050565b60006200037a620003746200036e8462000345565b6200034f565b62000345565b9050919050565b6000819050919050565b620003968362000359565b620003ae620003a58262000381565b848454620002ef565b825550505050565b600090565b620003c5620003b6565b620003d28184846200038b565b505050565b5b81811015620003fa57620003ee600082620003bb565b600181019050620003d8565b5050565b601f82111562000449576200041381620002bd565b6200041e84620002d2565b810160208510156200042e578190505b620004466200043d85620002d2565b830182620003d7565b50505b505050565b600082821c905092915050565b60006200046e600019846008026200044e565b1980831691505092915050565b60006200048983836200045b565b9150826002028217905092915050565b620004a4826200021f565b67ffffffffffffffff811115620004c057620004bf6200022a565b5b620004cc825462000288565b620004d9828285620003fe565b600060209050601f831160018114620005115760008415620004fc578287015190505b6200050885826200047b565b86555062000578565b601f1984166200052186620002bd565b60005b828110156200054b5784890151825560018201915060208501945060208101905062000524565b868310156200056b578489015162000567601f8916826200045b565b8355505b6001600288020188555050505b505050505050565b600082825260208201905092915050565b7f546f6b656e2061646472657373207061737365642069732061206e756c6c206160008201527f6464726573730000000000000000000000000000000000000000000000000000602082015250565b6000620005ef60268362000580565b9150620005fc8262000591565b604082019050919050565b600060208201905081810360008301526200062281620005e0565b9050919050565b611e4780620006396000396000f3fe6080604052600436106100f35760003560e01c806395d89b411161008a578063acb3159e11610059578063acb3159e1461035c578063dd62ed3e14610399578063e0486c8a146103d6578063f979dcd7146103ff576100f3565b806395d89b411461028b5780639c8f9f23146102b65780639d76ea58146102f4578063a9059cbb1461031f576100f3565b8063313ce567116100c6578063313ce567146101c857806351c6590a146101f357806359bf5d391461022357806370a082311461024e576100f3565b806306fdde03146100f8578063095ea7b31461012357806318160ddd1461016057806323b872dd1461018b575b600080fd5b34801561010457600080fd5b5061010d61041b565b60405161011a919061152d565b60405180910390f35b34801561012f57600080fd5b5061014a600480360381019061014591906115e8565b6104ad565b6040516101579190611643565b60405180910390f35b34801561016c57600080fd5b506101756104d0565b604051610182919061166d565b60405180910390f35b34801561019757600080fd5b506101b260048036038101906101ad9190611688565b6104da565b6040516101bf9190611643565b60405180910390f35b3480156101d457600080fd5b506101dd610509565b6040516101ea91906116f7565b60405180910390f35b61020d60048036038101906102089190611712565b610512565b60405161021a919061166d565b60405180910390f35b34801561022f57600080fd5b50610238610717565b604051610245919061166d565b60405180910390f35b34801561025a57600080fd5b506102756004803603810190610270919061173f565b6107ba565b604051610282919061166d565b60405180910390f35b34801561029757600080fd5b506102a0610802565b6040516102ad919061152d565b60405180910390f35b3480156102c257600080fd5b506102dd60048036038101906102d89190611712565b610894565b6040516102eb92919061176c565b60405180910390f35b34801561030057600080fd5b50610309610a29565b60405161031691906117a4565b60405180910390f35b34801561032b57600080fd5b50610346600480360381019061034191906115e8565b610a4f565b6040516103539190611643565b60405180910390f35b34801561036857600080fd5b50610383600480360381019061037e91906117bf565b610a72565b604051610390919061166d565b60405180910390f35b3480156103a557600080fd5b506103c060048036038101906103bb9190611812565b610b17565b6040516103cd919061166d565b60405180910390f35b3480156103e257600080fd5b506103fd60048036038101906103f89190611852565b610b9e565b005b61041960048036038101906104149190611712565b610cec565b005b60606003805461042a906118c1565b80601f0160208091040260200160405190810160405280929190818152602001828054610456906118c1565b80156104a35780601f10610478576101008083540402835291602001916104a3565b820191906000526020600020905b81548152906001019060200180831161048657829003601f168201915b5050505050905090565b6000806104b8610dfb565b90506104c5818585610e03565b600191505092915050565b6000600254905090565b6000806104e5610dfb565b90506104f2858285610e15565b6104fd858585610ea9565b60019150509392505050565b60006012905090565b60008060004790506000610524610717565b90506000600560009054906101000a900473ffffffffffffffffffffffffffffffffffffffff169050600082036105ef578073ffffffffffffffffffffffffffffffffffffffff166323b872dd3330896040518463ffffffff1660e01b8152600401610592939291906118f2565b6020604051808303816000875af11580156105b1573d6000803e3d6000fd5b505050506040513d601f19601f820116820180604052508101906105d59190611955565b508293506105e33385610f9d565b83945050505050610712565b600034846105fd91906119b1565b9050600081843461060e91906119e5565b6106189190611a56565b90508088101561065d576040517f08c379a000000000000000000000000000000000000000000000000000000000815260040161065490611af9565b60405180910390fd5b8273ffffffffffffffffffffffffffffffffffffffff166323b872dd3330846040518463ffffffff1660e01b815260040161069a939291906118f2565b6020604051808303816000875af11580156106b9573d6000803e3d6000fd5b505050506040513d601f19601f820116820180604052508101906106dd9190611955565b5081346106e86104d0565b6106f291906119e5565b6106fc9190611a56565b95506107083387610f9d565b8596505050505050505b919050565b6000600560009054906101000a900473ffffffffffffffffffffffffffffffffffffffff1673ffffffffffffffffffffffffffffffffffffffff166370a08231306040518263ffffffff1660e01b815260040161077491906117a4565b602060405180830381865afa158015610791573d6000803e3d6000fd5b505050506040513d601f19601f820116820180604052508101906107b59190611b2e565b905090565b60008060008373ffffffffffffffffffffffffffffffffffffffff1673ffffffffffffffffffffffffffffffffffffffff168152602001908152602001600020549050919050565b606060048054610811906118c1565b80601f016020809104026020016040519081016040528092919081815260200182805461083d906118c1565b801561088a5780601f1061085f5761010080835404028352916020019161088a565b820191906000526020600020905b81548152906001019060200180831161086d57829003601f168201915b5050505050905090565b600080600083116108da576040517f08c379a00000000000000000000000000000000000000000000000000000000081526004016108d190611bcd565b60405180910390fd5b600047905060006108e96104d0565b905060008186846108fa91906119e5565b6109049190611a56565b905060008287610912610717565b61091c91906119e5565b6109269190611a56565b9050610932338861101f565b3373ffffffffffffffffffffffffffffffffffffffff166108fc839081150290604051600060405180830381858888f19350505050158015610978573d6000803e3d6000fd5b50600560009054906101000a900473ffffffffffffffffffffffffffffffffffffffff1673ffffffffffffffffffffffffffffffffffffffff1663a9059cbb33836040518363ffffffff1660e01b81526004016109d6929190611bed565b6020604051808303816000875af11580156109f5573d6000803e3d6000fd5b505050506040513d601f19601f82011682018060405250810190610a199190611955565b5081819550955050505050915091565b600560009054906101000a900473ffffffffffffffffffffffffffffffffffffffff1681565b600080610a5a610dfb565b9050610a67818585610ea9565b600191505092915050565b60008083118015610a835750600082115b610ac2576040517f08c379a0000000000000000000000000000000000000000000000000000000008152600401610ab990611c62565b60405180910390fd5b6000606385610ad191906119e5565b905060008382610ae191906119e5565b9050600082606487610af391906119e5565b610afd9190611c82565b90508082610b0b9190611a56565b93505050509392505050565b6000600160008473ffffffffffffffffffffffffffffffffffffffff1673ffffffffffffffffffffffffffffffffffffffff16815260200190815260200160002060008373ffffffffffffffffffffffffffffffffffffffff1673ffffffffffffffffffffffffffffffffffffffff16815260200190815260200160002054905092915050565b6000610ba8610717565b90506000610bb7848347610a72565b905082811015610bfc576040517f08c379a0000000000000000000000000000000000000000000000000000000008152600401610bf390611d28565b60405180910390fd5b600560009054906101000a900473ffffffffffffffffffffffffffffffffffffffff1673ffffffffffffffffffffffffffffffffffffffff166323b872dd3330876040518463ffffffff1660e01b8152600401610c5b939291906118f2565b6020604051808303816000875af1158015610c7a573d6000803e3d6000fd5b505050506040513d601f19601f82011682018060405250810190610c9e9190611955565b503373ffffffffffffffffffffffffffffffffffffffff166108fc829081150290604051600060405180830381858888f19350505050158015610ce5573d6000803e3d6000fd5b5050505050565b6000610cf6610717565b90506000610d10343447610d0a91906119b1565b84610a72565b905082811015610d55576040517f08c379a0000000000000000000000000000000000000000000000000000000008152600401610d4c90611dba565b60405180910390fd5b600560009054906101000a900473ffffffffffffffffffffffffffffffffffffffff1673ffffffffffffffffffffffffffffffffffffffff1663a9059cbb33836040518363ffffffff1660e01b8152600401610db2929190611bed565b6020604051808303816000875af1158015610dd1573d6000803e3d6000fd5b505050506040513d601f19601f82011682018060405250810190610df59190611955565b50505050565b600033905090565b610e1083838360016110a1565b505050565b6000610e218484610b17565b90507fffffffffffffffffffffffffffffffffffffffffffffffffffffffffffffffff8114610ea35781811015610e93578281836040517ffb8f41b2000000000000000000000000000000000000000000000000000000008152600401610e8a93929190611dda565b60405180910390fd5b610ea2848484840360006110a1565b5b50505050565b600073ffffffffffffffffffffffffffffffffffffffff168373ffffffffffffffffffffffffffffffffffffffff1603610f1b5760006040517f96c6fd1e000000000000000000000000000000000000000000000000000000008152600401610f1291906117a4565b60405180910390fd5b600073ffffffffffffffffffffffffffffffffffffffff168273ffffffffffffffffffffffffffffffffffffffff1603610f8d5760006040517fec442f05000000000000000000000000000000000000000000000000000000008152600401610f8491906117a4565b60405180910390fd5b610f98838383611278565b505050565b600073ffffffffffffffffffffffffffffffffffffffff168273ffffffffffffffffffffffffffffffffffffffff160361100f5760006040517fec442f0500000000000000000000000000000000000000000000000000000000815260040161100691906117a4565b60405180910390fd5b61101b60008383611278565b5050565b600073ffffffffffffffffffffffffffffffffffffffff168273ffffffffffffffffffffffffffffffffffffffff16036110915760006040517f96c6fd1e00000000000000000000000000000000000000000000000000000000815260040161108891906117a4565b60405180910390fd5b61109d82600083611278565b5050565b600073ffffffffffffffffffffffffffffffffffffffff168473ffffffffffffffffffffffffffffffffffffffff16036111135760006040517fe602df0500000000000000000000000000000000000000000000000000000000815260040161110a91906117a4565b60405180910390fd5b600073ffffffffffffffffffffffffffffffffffffffff168373ffffffffffffffffffffffffffffffffffffffff16036111855760006040517f94280d6200000000000000000000000000000000000000000000000000000000815260040161117c91906117a4565b60405180910390fd5b81600160008673ffffffffffffffffffffffffffffffffffffffff1673ffffffffffffffffffffffffffffffffffffffff16815260200190815260200160002060008573ffffffffffffffffffffffffffffffffffffffff1673ffffffffffffffffffffffffffffffffffffffff168152602001908152602001600020819055508015611272578273ffffffffffffffffffffffffffffffffffffffff168473ffffffffffffffffffffffffffffffffffffffff167f8c5be1e5ebec7d5bd14f71427d1e84f3dd0314c0f7b2291e5b200ac8c7c3b92584604051611269919061166d565b60405180910390a35b50505050565b600073ffffffffffffffffffffffffffffffffffffffff168373ffffffffffffffffffffffffffffffffffffffff16036112ca5780600260008282546112be9190611c82565b9250508190555061139d565b60008060008573ffffffffffffffffffffffffffffffffffffffff1673ffffffffffffffffffffffffffffffffffffffff16815260200190815260200160002054905081811015611356578381836040517fe450d38c00000000000000000000000000000000000000000000000000000000815260040161134d93929190611dda565b60405180910390fd5b8181036000808673ffffffffffffffffffffffffffffffffffffffff1673ffffffffffffffffffffffffffffffffffffffff16815260200190815260200160002081905550505b600073ffffffffffffffffffffffffffffffffffffffff168273ffffffffffffffffffffffffffffffffffffffff16036113e65780600260008282540392505081905550611433565b806000808473ffffffffffffffffffffffffffffffffffffffff1673ffffffffffffffffffffffffffffffffffffffff168152602001908152602001600020600082825401925050819055505b8173ffffffffffffffffffffffffffffffffffffffff168373ffffffffffffffffffffffffffffffffffffffff167fddf252ad1be2c89b69c2b068fc378daa952ba7f163c4a11628f55a4df523b3ef83604051611490919061166d565b60405180910390a3505050565b600081519050919050565b600082825260208201905092915050565b60005b838110156114d75780820151818401526020810190506114bc565b60008484015250505050565b6000601f19601f8301169050919050565b60006114ff8261149d565b61150981856114a8565b93506115198185602086016114b9565b611522816114e3565b840191505092915050565b6000602082019050818103600083015261154781846114f4565b905092915050565b600080fd5b600073ffffffffffffffffffffffffffffffffffffffff82169050919050565b600061157f82611554565b9050919050565b61158f81611574565b811461159a57600080fd5b50565b6000813590506115ac81611586565b92915050565b6000819050919050565b6115c5816115b2565b81146115d057600080fd5b50565b6000813590506115e2816115bc565b92915050565b600080604083850312156115ff576115fe61154f565b5b600061160d8582860161159d565b925050602061161e858286016115d3565b9150509250929050565b60008115159050919050565b61163d81611628565b82525050565b60006020820190506116586000830184611634565b92915050565b611667816115b2565b82525050565b6000602082019050611682600083018461165e565b92915050565b6000806000606084860312156116a1576116a061154f565b5b60006116af8682870161159d565b93505060206116c08682870161159d565b92505060406116d1868287016115d3565b9150509250925092565b600060ff82169050919050565b6116f1816116db565b82525050565b600060208201905061170c60008301846116e8565b92915050565b6000602082840312156117285761172761154f565b5b6000611736848285016115d3565b91505092915050565b6000602082840312156117555761175461154f565b5b60006117638482850161159d565b91505092915050565b6000604082019050611781600083018561165e565b61178e602083018461165e565b9392505050565b61179e81611574565b82525050565b60006020820190506117b96000830184611795565b92915050565b6000806000606084860312156117d8576117d761154f565b5b60006117e6868287016115d3565b93505060206117f7868287016115d3565b9250506040611808868287016115d3565b9150509250925092565b600080604083850312156118295761182861154f565b5b60006118378582860161159d565b92505060206118488582860161159d565b9150509250929050565b600080604083850312156118695761186861154f565b5b6000611877858286016115d3565b9250506020611888858286016115d3565b9150509250929050565b7f4e487b7100000000000000000000000000000000000000000000000000000000600052602260045260246000fd5b600060028204905060018216806118d957607f821691505b6020821081036118ec576118eb611892565b5b50919050565b60006060820190506119076000830186611795565b6119146020830185611795565b611921604083018461165e565b949350505050565b61193281611628565b811461193d57600080fd5b50565b60008151905061194f81611929565b92915050565b60006020828403121561196b5761196a61154f565b5b600061197984828501611940565b91505092915050565b7f4e487b7100000000000000000000000000000000000000000000000000000000600052601160045260246000fd5b60006119bc826115b2565b91506119c7836115b2565b92508282039050818111156119df576119de611982565b5b92915050565b60006119f0826115b2565b91506119fb836115b2565b9250828202611a09816115b2565b91508282048414831517611a2057611a1f611982565b5b5092915050565b7f4e487b7100000000000000000000000000000000000000000000000000000000600052601260045260246000fd5b6000611a61826115b2565b9150611a6c836115b2565b925082611a7c57611a7b611a27565b5b828204905092915050565b7f496e73756666696369656e7420616d6f756e74206f6620746f6b656e7320707260008201527f6f76696465640000000000000000000000000000000000000000000000000000602082015250565b6000611ae36026836114a8565b9150611aee82611a87565b604082019050919050565b60006020820190508181036000830152611b1281611ad6565b9050919050565b600081519050611b28816115bc565b92915050565b600060208284031215611b4457611b4361154f565b5b6000611b5284828501611b19565b91505092915050565b7f416d6f756e74206f6620746f6b656e7320746f2072656d6f7665206d7573742060008201527f62652067726561746572207468616e2030000000000000000000000000000000602082015250565b6000611bb76031836114a8565b9150611bc282611b5b565b604082019050919050565b60006020820190508181036000830152611be681611baa565b9050919050565b6000604082019050611c026000830185611795565b611c0f602083018461165e565b9392505050565b7f5265736572766573206d7573742062652067726561746572207468616e203000600082015250565b6000611c4c601f836114a8565b9150611c5782611c16565b602082019050919050565b60006020820190508181036000830152611c7b81611c3f565b9050919050565b6000611c8d826115b2565b9150611c98836115b2565b9250828201905080821115611cb057611caf611982565b5b92915050565b7f455448207265636569766564206973206c657373207468616e206d696e696d7560008201527f6d20455448206578706563746564000000000000000000000000000000000000602082015250565b6000611d12602e836114a8565b9150611d1d82611cb6565b604082019050919050565b60006020820190508181036000830152611d4181611d05565b9050919050565b7f546f6b656e7320726563656976656420617265206c657373207468616e206d6960008201527f6e696d756d20746f6b656e732065787065637465640000000000000000000000602082015250565b6000611da46035836114a8565b9150611daf82611d48565b604082019050919050565b60006020820190508181036000830152611dd381611d97565b9050919050565b6000606082019050611def6000830186611795565b611dfc602083018561165e565b611e09604083018461165e565b94935050505056fea2646970667358221220547640e19662979f021f21393fed978f9f98f635af12404f048bb538f83a19c264736f6c63430008140033",
  "linkReferences": {},
  "deployedLinkReferences": {}
}