{
  "_format": "hh-sol-artifact-1",
  "contractName": "BookStore",
  "sourceName": "contracts/BookStore.sol",
  "abi": [
    {
      "inputs": [],
      "stateMutability": "nonpayable",
      "type": "constructor"
    },
    {
      "anonymous": false,
      "inputs": [
        {
          "indexed": false,
          "internalType": "uint256",
          "name": "bookId",
          "type": "uint256"
        }
      ],
      "name": "BookAdded",
      "type": "event"
    },
    {
      "anonymous": false,
      "inputs": [
        {
          "indexed": false,
          "internalType": "uint256",
          "name": "bookId",
          "type": "uint256"
        },
        {
          "indexed": false,
          "internalType": "uint256",
          "name": "quantity",
          "type": "uint256"
        }
      ],
      "name": "BookPurchased",
      "type": "event"
    },
    {
      "inputs": [
        {
          "internalType": "string",
          "name": "_title",
          "type": "string"
        },
        {
          "internalType": "string",
          "name": "_author",
          "type": "string"
        },
        {
          "internalType": "uint256",
          "name": "_price",
          "type": "uint256"
        },
        {
          "internalType": "uint256",
          "name": "_stock",
          "type": "uint256"
        }
      ],
      "name": "addBook",
      "outputs": [],
      "stateMutability": "nonpayable",
      "type": "function"
    },
    {
      "inputs": [],
      "name": "bookIdCounter",
      "outputs": [
        {
          "internalType": "uint256",
          "name": "",
          "type": "uint256"
        }
      ],
      "stateMutability": "view",
      "type": "function"
    },
    {
      "inputs": [
        {
          "internalType": "uint256",
          "name": "",
          "type": "uint256"
        }
      ],
      "name": "books",
      "outputs": [
        {
          "internalType": "uint256",
          "name": "id",
          "type": "uint256"
        },
        {
          "internalType": "string",
          "name": "title",
          "type": "string"
        },
        {
          "internalType": "string",
          "name": "author",
          "type": "string"
        },
        {
          "internalType": "uint256",
          "name": "price",
          "type": "uint256"
        },
        {
          "internalType": "uint256",
          "name": "stock",
          "type": "uint256"
        }
      ],
      "stateMutability": "view",
      "type": "function"
    },
    {
      "inputs": [
        {
          "internalType": "uint256",
          "name": "_bookId",
          "type": "uint256"
        }
      ],
      "name": "getBook",
      "outputs": [
        {
          "internalType": "uint256",
          "name": "",
          "type": "uint256"
        },
        {
          "internalType": "string",
          "name": "",
          "type": "string"
        },
        {
          "internalType": "string",
          "name": "",
          "type": "string"
        },
        {
          "internalType": "uint256",
          "name": "",
          "type": "uint256"
        },
        {
          "internalType": "uint256",
          "name": "",
          "type": "uint256"
        }
      ],
      "stateMutability": "view",
      "type": "function"
    },
    {
      "inputs": [],
      "name": "owner",
      "outputs": [
        {
          "internalType": "address",
          "name": "",
          "type": "address"
        }
      ],
      "stateMutability": "view",
      "type": "function"
    },
    {
      "inputs": [
        {
          "internalType": "uint256",
          "name": "_bookId",
          "type": "uint256"
        },
        {
          "internalType": "uint256",
          "name": "_quantity",
          "type": "uint256"
        }
      ],
      "name": "purchaseBook",
      "outputs": [],
      "stateMutability": "payable",
      "type": "function"
    }
  ],
  "bytecode": "0x608060405234801561001057600080fd5b50336000806101000a81548173ffffffffffffffffffffffffffffffffffffffff021916908373ffffffffffffffffffffffffffffffffffffffff16021790555060006001819055506112be806100686000396000f3fe6080604052600436106100555760003560e01c80630eed433b1461005a57806365b7bd251461007657806368744046146100a15780638da5cb5b146100e2578063d4c6758b1461010d578063e0ff5b8b14610136575b600080fd5b610074600480360381019061006f919061089a565b610177565b005b34801561008257600080fd5b5061008b6103d7565b60405161009891906108e9565b60405180910390f35b3480156100ad57600080fd5b506100c860048036038101906100c39190610904565b6103dd565b6040516100d99594939291906109c1565b60405180910390f35b3480156100ee57600080fd5b506100f7610523565b6040516101049190610a63565b60405180910390f35b34801561011957600080fd5b50610134600480360381019061012f9190610bb3565b610547565b005b34801561014257600080fd5b5061015d60048036038101906101589190610904565b6106b7565b60405161016e9594939291906109c1565b60405180910390f35b600081116101ba576040517f08c379a00000000000000000000000000000000000000000000000000000000081526004016101b190610c9e565b60405180910390fd5b6000600260008481526020019081526020016000206000015403610213576040517f08c379a000000000000000000000000000000000000000000000000000000000815260040161020a90610d0a565b60405180910390fd5b806002600084815260200190815260200160002060040154101561026c576040517f08c379a000000000000000000000000000000000000000000000000000000000815260040161026390610d76565b60405180910390fd5b80600260008481526020019081526020016000206003015461028e9190610dc5565b3410156102d0576040517f08c379a00000000000000000000000000000000000000000000000000000000081526004016102c790610e53565b60405180910390fd5b806002600084815260200190815260200160002060040160008282546102f69190610e73565b925050819055507fb3853ff9ca5a150d73fa83fd4b325938c9cd0cf0921b0f29cf20fe37c38008ed828260405161032e929190610ea7565b60405180910390a18060026000848152602001908152602001600020600301546103589190610dc5565b3411156103d3573373ffffffffffffffffffffffffffffffffffffffff166108fc82600260008681526020019081526020016000206003015461039b9190610dc5565b346103a69190610e73565b9081150290604051600060405180830381858888f193505050501580156103d1573d6000803e3d6000fd5b505b5050565b60015481565b600260205280600052604060002060009150905080600001549080600101805461040690610eff565b80601f016020809104026020016040519081016040528092919081815260200182805461043290610eff565b801561047f5780601f106104545761010080835404028352916020019161047f565b820191906000526020600020905b81548152906001019060200180831161046257829003601f168201915b50505050509080600201805461049490610eff565b80601f01602080910402602001604051908101604052809291908181526020018280546104c090610eff565b801561050d5780601f106104e25761010080835404028352916020019161050d565b820191906000526020600020905b8154815290600101906020018083116104f057829003601f168201915b5050505050908060030154908060040154905085565b60008054906101000a900473ffffffffffffffffffffffffffffffffffffffff1681565b60008054906101000a900473ffffffffffffffffffffffffffffffffffffffff1673ffffffffffffffffffffffffffffffffffffffff163373ffffffffffffffffffffffffffffffffffffffff16146105d5576040517f08c379a00000000000000000000000000000000000000000000000000000000081526004016105cc90610fa2565b60405180910390fd5b600160008154809291906105e890610fc2565b91905055506040518060a0016040528060015481526020018581526020018481526020018381526020018281525060026000600154815260200190815260200160002060008201518160000155602082015181600101908161064a91906111b6565b50604082015181600201908161066091906111b6565b5060608201518160030155608082015181600401559050507ff28b4f7e52e9859ee83d34999feac48c8198ba0fc5b0d867ae01064191e7484c6001546040516106a991906108e9565b60405180910390a150505050565b60006060806000806000600260008881526020019081526020016000206040518060a0016040529081600082015481526020016001820180546106f990610eff565b80601f016020809104026020016040519081016040528092919081815260200182805461072590610eff565b80156107725780601f1061074757610100808354040283529160200191610772565b820191906000526020600020905b81548152906001019060200180831161075557829003601f168201915b5050505050815260200160028201805461078b90610eff565b80601f01602080910402602001604051908101604052809291908181526020018280546107b790610eff565b80156108045780601f106107d957610100808354040283529160200191610804565b820191906000526020600020905b8154815290600101906020018083116107e757829003601f168201915b5050505050815260200160038201548152602001600482015481525050905080600001518160200151826040015183606001518460800151955095509550955095505091939590929450565b6000604051905090565b600080fd5b600080fd5b6000819050919050565b61087781610864565b811461088257600080fd5b50565b6000813590506108948161086e565b92915050565b600080604083850312156108b1576108b061085a565b5b60006108bf85828601610885565b92505060206108d085828601610885565b9150509250929050565b6108e381610864565b82525050565b60006020820190506108fe60008301846108da565b92915050565b60006020828403121561091a5761091961085a565b5b600061092884828501610885565b91505092915050565b600081519050919050565b600082825260208201905092915050565b60005b8381101561096b578082015181840152602081019050610950565b60008484015250505050565b6000601f19601f8301169050919050565b600061099382610931565b61099d818561093c565b93506109ad81856020860161094d565b6109b681610977565b840191505092915050565b600060a0820190506109d660008301886108da565b81810360208301526109e88187610988565b905081810360408301526109fc8186610988565b9050610a0b60608301856108da565b610a1860808301846108da565b9695505050505050565b600073ffffffffffffffffffffffffffffffffffffffff82169050919050565b6000610a4d82610a22565b9050919050565b610a5d81610a42565b82525050565b6000602082019050610a786000830184610a54565b92915050565b600080fd5b600080fd5b7f4e487b7100000000000000000000000000000000000000000000000000000000600052604160045260246000fd5b610ac082610977565b810181811067ffffffffffffffff82111715610adf57610ade610a88565b5b80604052505050565b6000610af2610850565b9050610afe8282610ab7565b919050565b600067ffffffffffffffff821115610b1e57610b1d610a88565b5b610b2782610977565b9050602081019050919050565b82818337600083830152505050565b6000610b56610b5184610b03565b610ae8565b905082815260208101848484011115610b7257610b71610a83565b5b610b7d848285610b34565b509392505050565b600082601f830112610b9a57610b99610a7e565b5b8135610baa848260208601610b43565b91505092915050565b60008060008060808587031215610bcd57610bcc61085a565b5b600085013567ffffffffffffffff811115610beb57610bea61085f565b5b610bf787828801610b85565b945050602085013567ffffffffffffffff811115610c1857610c1761085f565b5b610c2487828801610b85565b9350506040610c3587828801610885565b9250506060610c4687828801610885565b91505092959194509250565b7f5175616e74697479206d7573742062652067726561746572207468616e203000600082015250565b6000610c88601f8361093c565b9150610c9382610c52565b602082019050919050565b60006020820190508181036000830152610cb781610c7b565b9050919050565b7f496e76616c696420626f6f6b2049440000000000000000000000000000000000600082015250565b6000610cf4600f8361093c565b9150610cff82610cbe565b602082019050919050565b60006020820190508181036000830152610d2381610ce7565b9050919050565b7f496e73756666696369656e742073746f636b0000000000000000000000000000600082015250565b6000610d6060128361093c565b9150610d6b82610d2a565b602082019050919050565b60006020820190508181036000830152610d8f81610d53565b9050919050565b7f4e487b7100000000000000000000000000000000000000000000000000000000600052601160045260246000fd5b6000610dd082610864565b9150610ddb83610864565b9250828202610de981610864565b91508282048414831517610e0057610dff610d96565b5b5092915050565b7f496e73756666696369656e742066756e64730000000000000000000000000000600082015250565b6000610e3d60128361093c565b9150610e4882610e07565b602082019050919050565b60006020820190508181036000830152610e6c81610e30565b9050919050565b6000610e7e82610864565b9150610e8983610864565b9250828203905081811115610ea157610ea0610d96565b5b92915050565b6000604082019050610ebc60008301856108da565b610ec960208301846108da565b9392505050565b7f4e487b7100000000000000000000000000000000000000000000000000000000600052602260045260246000fd5b60006002820490506001821680610f1757607f821691505b602082108103610f2a57610f29610ed0565b5b50919050565b7f4f6e6c7920746865206f776e65722063616e20706572666f726d20746869732060008201527f616374696f6e0000000000000000000000000000000000000000000000000000602082015250565b6000610f8c60268361093c565b9150610f9782610f30565b604082019050919050565b60006020820190508181036000830152610fbb81610f7f565b9050919050565b6000610fcd82610864565b91507fffffffffffffffffffffffffffffffffffffffffffffffffffffffffffffffff8203610fff57610ffe610d96565b5b600182019050919050565b60008190508160005260206000209050919050565b60006020601f8301049050919050565b600082821b905092915050565b60006008830261106c7fffffffffffffffffffffffffffffffffffffffffffffffffffffffffffffffff8261102f565b611076868361102f565b95508019841693508086168417925050509392505050565b6000819050919050565b60006110b36110ae6110a984610864565b61108e565b610864565b9050919050565b6000819050919050565b6110cd83611098565b6110e16110d9826110ba565b84845461103c565b825550505050565b600090565b6110f66110e9565b6111018184846110c4565b505050565b5b818110156111255761111a6000826110ee565b600181019050611107565b5050565b601f82111561116a5761113b8161100a565b6111448461101f565b81016020851015611153578190505b61116761115f8561101f565b830182611106565b50505b505050565b600082821c905092915050565b600061118d6000198460080261116f565b1980831691505092915050565b60006111a6838361117c565b9150826002028217905092915050565b6111bf82610931565b67ffffffffffffffff8111156111d8576111d7610a88565b5b6111e28254610eff565b6111ed828285611129565b600060209050601f831160018114611220576000841561120e578287015190505b611218858261119a565b865550611280565b601f19841661122e8661100a565b60005b8281101561125657848901518255600182019150602085019450602081019050611231565b86831015611273578489015161126f601f89168261117c565b8355505b6001600288020188555050505b50505050505056fea264697066735822122002f9da791a444bb7adb97d980cc5ae8e6ebc5035c559d90d9eacefc52da34e5f64736f6c63430008130033",
  "linkReferences": {},
  "deployedLinkReferences": {}
}